:100000000C9435010C9466010C9466010C94660105
:100010000C9466010C9466010C9466010C946601C4
:100020000C9466010C9466010C9466010C946601B4
:100030000C9466010C9466010C9466010C946601A4
:100040000C9466010C9466010C9466010C94660194
:100050000C9466010C9466010C9466010C944004A7
:100060000C9466010C9466010C9466010C94660174
:100070000C9466010C9466010C9466010C94660164
:100080000C9466010C9466010C9466010C94660154
:100090000C9466010C9466010C9466010C94660144
:1000A0000C9466010C9466010C9466010C94660134
:1000B0000C9466010C9466010C9466010C94660124
:1000C0000C9466010C9466010C9466010C94B404C3
:1000D0000C948A040C9466010C9466010C946601DD
:1000E0000C9466010C94AB010C94CB010C94C101EF
:1000F0000C94DE020C94B9010C9416030C94C60106
:100100000C94AF010C9494010C9463030C948C0137
:100110000C94A5010C9486010C9498010C949B01FD
:100120000C94AD020C94A1010C94C7010C94B30182
:100130000C9480020C94CC070C9490010C94BC029B
:100140000C94BD010C94D002000021002400270073
:100150002A002D00300033000101000004010701D6
:100160000A0100002200250028002B002E0031008B
:10017000340002010000050108010B01000020000D
:100180002300260029002C002F003200000100006F
:10019000030106010901050505050705080808080A
:1001A000020202020A0A080804040404010101010F
:1001B000010101010303030303030303040707070A
:1001C0000C0C0C0C0C0C0C0C0202020206060606AF
:1001D000060606060B0B0B0B0B0B0B0B010210207C
:1001E000200808102040102040800201020108046D
:1001F0000201010204081020408080402010080401
:100200000201800402018040201008040201080459
:10021000020101020408102040800102040810209D
:10022000408000000A0B02090C0D0E0807030401B0
:1002300000000000000000000000000000000000BE
:10024000000000000000000000000000000012118B
:10025000100000000000000000000000000000008E
:100260000000000000000000CC0711241FBECFEFEB
:10027000D1E2DEBFCDBF00E00CBF12E0A0E0B2E0F3
:10028000EAE4F0E100E00BBF02C007900D92A43A4F
:10029000B107D9F726E0A4EAB2E001C01D92AE365C
:1002A000B207E1F711E0C5E3D1E000E006C0219715
:1002B0000109802FFE010E941B08C433D10780E092
:1002C0000807A9F70E94EA040C9423080C94000084
:1002D0008150823108F05AC0E82FF0E08827EC58AE
:1002E000FE4F8F4F0C941B089401980186018C01DE
:1002F0009001C6019B01A101A501AB01AF01B301B2
:10030000B901BD01C601C101C701CB0180918000C7
:100310008F77809380000895809180008F7DF9CF42
:1003200080918000877FF5CF84B58F7784BD089555
:1003300084B58F7DFBCF8091B0008F778093B00024
:1003400008958091B0008F7DF9CF809190008F77D4
:10035000809390000895809190008F7DF9CF8091D7
:100360009000877FF5CF8091A0008F778093A000C9
:1003700008958091A0008F7DF9CF8091A000877FA4
:10038000F5CF809120018F7780932001089580918F
:1003900020018F7DF9CF80912001877FF5CFCF930A
:1003A000DF93282F30E0F901EE5DFD4F8491F901D4
:1003B000E452FE4FD491F901EA56FE4FC491CC238A
:1003C000A1F081110E946801EC2FF0E0EE0FFF1FF9
:1003D000E458FE4FA591B491EC91ED2381E090E0BB
:1003E00009F480E0DF91CF91089580E090E0FACFAA
:1003F0001F93CF93DF93282F30E0F901EE5DFD4F7F
:100400008491F901E452FE4FD491F901EA56FE4F6E
:10041000C491CC23A9F0162F81110E946801EC2F02
:10042000F0E0EE0FFF1FEE59FE4FA591B4918FB78C
:10043000F894EC91111108C0D095DE23DC938FBFA6
:10044000DF91CF911F910895DE2BF8CF3FB7F8943D
:100450008091CD059091CE05A091CF05B091D005AA
:1004600026B5A89B05C02F3F19F00196A11DB11D0F
:100470003FBFBA2FA92F982F8827BC01CD01620F4B
:10048000711D811D911D42E0660F771F881F991F06
:100490004A95D1F708958F929F92AF92BF92CF92D3
:1004A000DF92EF92FF920E9426024B015C0184E6EC
:1004B000C82ED12CE12CF12C0E9426026819790952
:1004C0008A099B09683E734081059105A8F321E0E4
:1004D000C21AD108E108F10888EE880E83E0981E60
:1004E000A11CB11CC114D104E104F10429F7FF904F
:1004F000EF90DF90CF90BF90AF909F908F90089536
:10050000AF92BF92CF92DF92EF92FF920F931F9321
:10051000CF93DF936C017B018B01040F151FEB015F
:100520005E01AE18BF08C017D10759F06991D60116
:10053000ED91FC910190F081E02DC6011995892B78
:1005400079F7C501DF91CF911F910F91FF90EF9047
:10055000DF90CF90BF90AF900895FC01538D448DF4
:10056000252F30E0842F90E0821B930B541710F05E
:10057000CF96089501970895FC01918D828D98176B
:1005800061F0A28DAE0FBF2FB11D5D968C91928D43
:100590009F5F9F73928F90E008958FEF9FEF089574
:1005A000FC01918D828D981731F0828DE80FF11D3D
:1005B000858D90E008958FEF9FEF0895FC01918D58
:1005C000228D892F90E0805C9F4F821B91098F7351
:1005D0009927089581ED95E00E94DE0221E0892BA4
:1005E00009F420E0822F0895FC01A48DA80FB92FF3
:1005F000B11DA35ABF4F2C91848D90E001968F734B
:100600009927848FA689B7892C93A089B1898C9169
:10061000837080648C93938D848D981306C00288B8
:10062000F389E02D80818F7D80830895EF92FF9282
:100630000F931F93CF93DF93EC0181E0888F9B8D05
:100640008C8D98131AC0E889F989808185FF15C0BF
:100650009FB7F894EE89FF896083E889F9898081E2
:100660008370806480839FBF81E090E0DF91CF91B1
:100670001F910F91FF90EF900895F62E0B8D10E0D3
:100680000F5F1F4F0F731127E02E8C8D8E110CC042
:100690000FB607FCFACFE889F989808185FFF5CF8D
:1006A000CE010E94F402F1CFEB8DEC0FFD2FF11D76
:1006B000E35AFF4FF0829FB7F8940B8FEA89FB89CA
:1006C00080818062CFCFCF93DF93EC01888D882328
:1006D000B9F0AA89BB89E889F9898C9185FD03C0A5
:1006E000808186FD0DC00FB607FCF7CF8C9185FF8A
:1006F000F2CF808185FFEDCFCE010E94F402E9CFD9
:10070000DF91CF91089580E090E0892B49F080E05F
:1007100090E0892B29F00E94000081110E940000C6
:1007200080E090E0892B49F080E090E0892B29F06F
:100730000E94000081110E94000080E090E0892B5F
:1007400029F00E94EA0281110E94000080E090E0FE
:10075000892B49F080E090E0892B29F00E9400006D
:1007600081110C9400000895FC0101900020E9F72C
:100770003197AF01481B590BBC0181ED95E00C94FA
:10078000800286E192E00C94B4038F929F92AF9224
:10079000BF920F931F93CF93DF93CDB7DEB7A1978F
:1007A0000FB6F894DEBF0FBECDBF19A2423008F4D9
:1007B0004AE08E010F5D1F4F842E912CB12CA12C8D
:1007C000A50194010E94F907E62FB901CA01EA3098
:1007D000F4F4E05DD801EE938D01232B242B252B1F
:1007E00079F790E080E0109719F0CD010E94B403F2
:1007F000A1960FB6F894DEBF0FBECDBFDF91CF91AB
:100800001F910F91BF90AF909F908F900895E95CDA
:10081000E1CFCF92DF92EF92FF92CF93DF936B0104
:100820007C016DE281ED95E00E941603EC016627E4
:100830007727CB016C197D098E099F094AE00E9438
:10084000C5038C0F9D1FDF91CF91FF90EF90DF903C
:10085000CF900895CF93DF93BC01990F880B990B2C
:1008600097FF0AC00E940904EC010E94C1038C0F8B
:100870009D1FDF91CF9108954AE00E94C503F4CFF8
:100880001F920F920FB60F9211242F933F938F93C5
:100890009F93AF93BF938091C9059091CA05A09192
:1008A000CB05B091CC053091C80523E0230F2D373F
:1008B00058F50196A11DB11D2093C8058093C90567
:1008C0009093CA05A093CB05B093CC058091CD053C
:1008D0009091CE05A091CF05B091D0050196A11DB4
:1008E000B11D8093CD059093CE05A093CF05B09315
:1008F000D005BF91AF919F918F913F912F910F9014
:100900000FBE0F901F90189526E8230F0296A11D89
:10091000B11DD2CF1F920F920FB60F9211240BB6BA
:100920000F922F933F934F935F936F937F938F9388
:100930009F93AF93BF93EF93FF9381ED95E00E9458
:10094000F402FF91EF91BF91AF919F918F917F91B1
:100950006F915F914F913F912F910F900BBE0F9030
:100960000FBE0F901F9018951F920F920FB60F9207
:1009700011240BB60F922F938F939F93EF93FF93B6
:10098000E091E105F091E2058081E091E705F091C9
:10099000E80582FD1DC090818091EA058F5F8F730D
:1009A0002091EB05821741F0E091EA05F0E0EF526B
:1009B000FA4F958F8093EA05FF91EF919F918F9168
:1009C0002F910F900BBE0F900FBE0F901F90189598
:1009D0008081F2CF789484B5826084BD84B58160D3
:1009E00084BD85B5826085BD85B5816085BD8091FA
:1009F0006E00816080936E00109281008091810072
:100A00008260809381008091810081608093810069
:100A1000809180008160809380008091B10084602B
:100A20008093B1008091B00081608093B00080918C
:100A30009100826080939100809191008160809309
:100A40009100809190008160809390008091A1003E
:100A500082608093A1008091A10081608093A100B9
:100A60008091A00081608093A0008091210182602C
:100A700080932101809121018160809321018091E7
:100A8000200181608093200180917A0084608093AE
:100A90007A0080917A00826080937A0080917A0057
:100AA000816080937A0080917A00806880937A00D8
:100AB0001092C100C1E0D0E08C2FFE01E452FE4F45
:100AC0009491FE01EA56FE4F2491222399F030E0E2
:100AD000220F331FF901E85BFE4FA591B491F90194
:100AE000EE59FE4F259134912FB7F894EC91E92BF4
:100AF000EC932FBF60E00E94F8012196C630D1052B
:100B0000D9F6E091E105F091E20582E08083E09181
:100B1000DD05F091DE051082E091DF05F091E00542
:100B20008FEC80831092E905E091E505F091E605F0
:100B300086E08083E091E305F091E40580818061A7
:100B40008083E091E305F091E405808188608083F3
:100B5000E091E305F091E405808180688083E09175
:100B6000E305F091E40580818F7D8083EE24E3949A
:100B7000F12CD3E02D2E312C14E0812E912C8DE020
:100B80000E94CF01892B59F5E0910202F0910302F6
:100B90003196F0930302E09302028091C605909192
:100BA000C705C296B3E0EE0FFF1FBA95E1F7EA550D
:100BB000FD4FF182E0829383828328E030E0358329
:100BC0002483178216820E94C10389E192E00E9469
:100BD000B4038091C6059091C7050E942A048CE059
:100BE0000E94CF01892B69F5E0910202F091030286
:100BF0003196F0930302E09302028091C605909132
:100C0000C7058896A3E0EE0FFF1FAA95E1F7EA5506
:100C1000FD4F22E030E0318320839383828387E09D
:100C200090E095838483F782E6820E94C1038BE281
:100C300092E00E94B4038091C6059091C7050E947E
:100C40002A048BE00E94CF01892B59F5E091020222
:100C5000F09103023196F0930302E0930202809137
:100C6000C6059091C7054E9673E0EE0FFF1F7A956B
:100C7000E1F7EA55FD4F318220829383828326E09B
:100C800030E035832483F782E6820E94C1038DE33E
:100C900092E00E94B4038091C6059091C7050E941E
:100CA0002A048AE00E94CF01892B49F5E0910202D3
:100CB000F09103023196F0930302E09302028091D7
:100CC000C6059091C705449663E0EE0FFF1F6A9535
:100CD000E1F7EA55FD4F918280829383828395826A
:100CE0008482178216820E94C1038FE492E00E94E0
:100CF000B4038091C6059091C7050E942A0489E03B
:100D00000E94CF01892B59F5E0910202F091030274
:100D10003196F0930302E09302028091C605909110
:100D2000C7050A9653E0EE0FFF1F5A95E1F7EA5503
:100D3000FD4F25E030E03183208393838283358229
:100D40002482F782E6820E94C10381E692E00E943B
:100D5000B4038091C6059091C7050E942A04809132
:100D6000A4029091A502019709F045C0C09100022C
:100D7000D091010243E0CC0FDD1F4A95E1F7FE015F
:100D8000EA55FD4F228133818091C6059091C705B8
:100D9000281739070CF083C01182108283E792E094
:100DA0000E94B4030E94C1031092A5021092A402F3
:100DB000C0910002D091010233E0CC0FDD1F3A95C3
:100DC000E1F7CA55DD4F8C819D81892BA1F460E04C
:100DD00088810E94F801198218828CE792E00E94B3
:100DE000B40380910002909101020E942A041092A3
:100DF000A5021092A4028091A4029091A502892BD1
:100E000009F0B2C006EA12E0412C512C320120E177
:100E1000C22E27E2D22ECFEFDFEF520180910202E5
:100E200090910302841595050CF44FC0F8012281BE
:100E300033818091C6059091C70528173907DCF4E6
:100E400080819181892B79F086E892E00E94B40339
:100E50004AE0C301B2010E94C5038BE892E00E9400
:100E6000B4030E94C10360E0F80180810E94F80190
:100E7000F80111821082F80180819181892B39F06B
:100E800082819381C816D90614F06C01E501085FD0
:100E90001F4FFFEF4F1A5F0A6F0A7F0ABECF848190
:100EA000958101979583848311E060E0812F0E94F2
:100EB000F8011F5F1630C9F7CA55DD4F61E0888120
:100EC0000E94F8010E944B0273CFCF3FDC0709F468
:100ED0004BC0D0930102C093000293E0CC0FDD1F02
:100EE0009A95E1F7FE01EA55FD4F8681978190932F
:100EF000A5028093A40284819581019795838483C0
:100F000011E060E0812F0E94F8011F5F1630C9F7E1
:100F1000FE01EA55FD4FD081C18184E992E00E9433
:100F2000B4038D2F9C2F0E942A0461E08D2F0E9414
:100F3000F8010E944B02C0910002D091010283E0AF
:100F4000CC0FDD1F8A95E1F7CA55DD4F8C819D815D
:100F5000892B51F460E088810E94F801198218827F
:100F60001092A5021092A4028091C6059091C70527
:100F700001969093C7058093C6050E944B028AE9AB
:100F800092E00E94B40380910002909101020E94BD
:100F90002A040E948303F3CDE1EDF5E0138212826F
:100FA00088EE93E0A0E0B0E084839583A683B783C6
:100FB00088E092E09183808385ED90E09587848737
:100FC00084ED90E09787868780ED90E0918B808B11
:100FD00081ED90E0938B828B82ED90E0958B848BFA
:100FE00086ED90E0978B868B118E128E138E148E69
:100FF0000895A1E21A2EAA1BBB1BFD010DC0AA1F5A
:10100000BB1FEE1FFF1FA217B307E407F50720F071
:10101000A21BB30BE40BF50B661F771F881F991FEC
:101020001A9469F760957095809590959B01AC0135
:10103000BD01CF010895EE0FFF1F881F8BBF0790E2
:0A104000F691E02D1994F894FFCF0B
:10104A00FFFFFFFF0000000016038002AD026303EA
:10105A00DE02BC02D0020D0A005461736B203120FB
:10106A0061727269766520617420005461736B2025
:10107A00322061727269766520617420005461734E
:10108A006B20332061727269766520617420005486
:10109A0061736B20342061727269766520617420F5
:1010AA00005461736B203520617272697665206124
:1010BA00742000646561646C696E650066696E69B6
:1010CA007368656420007461736B00206D697373C3
:1010DA0065642E004C45443A20007461736B4944A0
:0410EA003A200000A8
:00000001FF
